{
  "_format": "hh-sol-artifact-1",
  "contractName": "CryptoDevsDAO",
  "sourceName": "contracts/CryptoDevsDAO.sol",
  "abi": [
    {
      "inputs": [
        {
          "internalType": "address",
          "name": "_FakeNftMarketplace",
          "type": "address"
        },
        {
          "internalType": "address",
          "name": "_CryptoDevsNFT",
          "type": "address"
        }
      ],
      "stateMutability": "nonpayable",
      "type": "constructor"
    },
    {
      "anonymous": false,
      "inputs": [
        {
          "indexed": false,
          "internalType": "uint256",
          "name": "numProposal",
          "type": "uint256"
        }
      ],
      "name": "NewProposal",
      "type": "event"
    },
    {
      "anonymous": false,
      "inputs": [
        {
          "indexed": true,
          "internalType": "address",
          "name": "previousOwner",
          "type": "address"
        },
        {
          "indexed": true,
          "internalType": "address",
          "name": "newOwner",
          "type": "address"
        }
      ],
      "name": "OwnershipTransferred",
      "type": "event"
    },
    {
      "stateMutability": "payable",
      "type": "fallback"
    },
    {
      "inputs": [
        {
          "internalType": "uint256",
          "name": "_nftTokenId",
          "type": "uint256"
        }
      ],
      "name": "createProposal",
      "outputs": [
        {
          "internalType": "uint256",
          "name": "",
          "type": "uint256"
        }
      ],
      "stateMutability": "nonpayable",
      "type": "function"
    },
    {
      "inputs": [
        {
          "internalType": "uint256",
          "name": "_proposalId",
          "type": "uint256"
        }
      ],
      "name": "executeProposal",
      "outputs": [],
      "stateMutability": "nonpayable",
      "type": "function"
    },
    {
      "inputs": [],
      "name": "numProposals",
      "outputs": [
        {
          "internalType": "uint256",
          "name": "",
          "type": "uint256"
        }
      ],
      "stateMutability": "view",
      "type": "function"
    },
    {
      "inputs": [],
      "name": "owner",
      "outputs": [
        {
          "internalType": "address",
          "name": "",
          "type": "address"
        }
      ],
      "stateMutability": "view",
      "type": "function"
    },
    {
      "inputs": [
        {
          "internalType": "uint256",
          "name": "",
          "type": "uint256"
        }
      ],
      "name": "proposals",
      "outputs": [
        {
          "internalType": "uint256",
          "name": "nftId",
          "type": "uint256"
        },
        {
          "internalType": "uint256",
          "name": "deadline",
          "type": "uint256"
        },
        {
          "internalType": "uint256",
          "name": "yesVotes",
          "type": "uint256"
        },
        {
          "internalType": "uint256",
          "name": "noVotes",
          "type": "uint256"
        },
        {
          "internalType": "bool",
          "name": "isExecuted",
          "type": "bool"
        }
      ],
      "stateMutability": "view",
      "type": "function"
    },
    {
      "inputs": [],
      "name": "renounceOwnership",
      "outputs": [],
      "stateMutability": "nonpayable",
      "type": "function"
    },
    {
      "inputs": [
        {
          "internalType": "address",
          "name": "adr",
          "type": "address"
        }
      ],
      "name": "selfDestruct",
      "outputs": [],
      "stateMutability": "nonpayable",
      "type": "function"
    },
    {
      "inputs": [
        {
          "internalType": "address",
          "name": "newOwner",
          "type": "address"
        }
      ],
      "name": "transferOwnership",
      "outputs": [],
      "stateMutability": "nonpayable",
      "type": "function"
    },
    {
      "inputs": [
        {
          "internalType": "uint256",
          "name": "_proposalId",
          "type": "uint256"
        },
        {
          "internalType": "enum CryptoDevsDAO.Vote",
          "name": "vote",
          "type": "uint8"
        }
      ],
      "name": "voteOnProposal",
      "outputs": [],
      "stateMutability": "nonpayable",
      "type": "function"
    },
    {
      "inputs": [],
      "name": "withdrawEther",
      "outputs": [],
      "stateMutability": "nonpayable",
      "type": "function"
    },
    {
      "stateMutability": "payable",
      "type": "receive"
    }
  ],
  "bytecode": "0x60806040523480156200001157600080fd5b5060405162001a1a38038062001a1a833981810160405281019062000037919062000217565b620000576200004b620000e160201b60201c565b620000e960201b60201c565b80600160006101000a81548173ffffffffffffffffffffffffffffffffffffffff021916908373ffffffffffffffffffffffffffffffffffffffff16021790555081600260006101000a81548173ffffffffffffffffffffffffffffffffffffffff021916908373ffffffffffffffffffffffffffffffffffffffff16021790555050506200025e565b600033905090565b60008060009054906101000a900473ffffffffffffffffffffffffffffffffffffffff169050816000806101000a81548173ffffffffffffffffffffffffffffffffffffffff021916908373ffffffffffffffffffffffffffffffffffffffff1602179055508173ffffffffffffffffffffffffffffffffffffffff168173ffffffffffffffffffffffffffffffffffffffff167f8be0079c531659141344cd1fd0a4f28419497f9722a3daafe3b4186f6b6457e060405160405180910390a35050565b600080fd5b600073ffffffffffffffffffffffffffffffffffffffff82169050919050565b6000620001df82620001b2565b9050919050565b620001f181620001d2565b8114620001fd57600080fd5b50565b6000815190506200021181620001e6565b92915050565b60008060408385031215620002315762000230620001ad565b5b6000620002418582860162000200565b9250506020620002548582860162000200565b9150509250929050565b6117ac806200026e6000396000f3fe6080604052600436106100955760003560e01c8063715018a611610059578063715018a6146101995780637362377b146101b05780638da5cb5b146101c7578063efafb22e146101f2578063f2fde38b1461021b5761009c565b8063013cf08b1461009e5780630d61b519146100df5780633f5a0bdd14610108578063400e3949146101315780635a43dc001461015c5761009c565b3661009c57005b005b3480156100aa57600080fd5b506100c560048036038101906100c09190610f2d565b610244565b6040516100d6959493929190610f84565b60405180910390f35b3480156100eb57600080fd5b5061010660048036038101906101019190610f2d565b610287565b005b34801561011457600080fd5b5061012f600480360381019061012a9190611035565b6105fa565b005b34801561013d57600080fd5b50610146610613565b6040516101539190611062565b60405180910390f35b34801561016857600080fd5b50610183600480360381019061017e9190610f2d565b610619565b6040516101909190611062565b60405180910390f35b3480156101a557600080fd5b506101ae610891565b005b3480156101bc57600080fd5b506101c56108a5565b005b3480156101d357600080fd5b506101dc6108fd565b6040516101e9919061108c565b60405180910390f35b3480156101fe57600080fd5b50610219600480360381019061021491906110cc565b610926565b005b34801561022757600080fd5b50610242600480360381019061023d9190611035565b610d24565b005b60036020528060005260406000206000915090508060000154908060010154908060020154908060030154908060040160009054906101000a900460ff16905085565b6000600160009054906101000a900473ffffffffffffffffffffffffffffffffffffffff1673ffffffffffffffffffffffffffffffffffffffff166370a08231336040518263ffffffff1660e01b81526004016102e4919061108c565b60206040518083038186803b1580156102fc57600080fd5b505afa158015610310573d6000803e3d6000fd5b505050506040513d601f19601f820116820180604052508101906103349190611121565b11610374576040517f08c379a000000000000000000000000000000000000000000000000000000000815260040161036b906111ab565b60405180910390fd5b80600360008281526020019081526020016000206001015442116103cd576040517f08c379a00000000000000000000000000000000000000000000000000000000081526004016103c49061123d565b60405180910390fd5b600015156003600083815260200190815260200160002060040160009054906101000a900460ff16151514610437576040517f08c379a000000000000000000000000000000000000000000000000000000000815260040161042e906112cf565b60405180910390fd5b60006003600084815260200190815260200160002090508060030154816002015411156105d8576000600260009054906101000a900473ffffffffffffffffffffffffffffffffffffffff1673ffffffffffffffffffffffffffffffffffffffff166398d5fdca6040518163ffffffff1660e01b815260040160206040518083038186803b1580156104c857600080fd5b505afa1580156104dc573d6000803e3d6000fd5b505050506040513d601f19601f820116820180604052508101906105009190611121565b9050804711610544576040517f08c379a000000000000000000000000000000000000000000000000000000000815260040161053b9061133b565b60405180910390fd5b600260009054906101000a900473ffffffffffffffffffffffffffffffffffffffff1673ffffffffffffffffffffffffffffffffffffffff1663efef39a18284600001546040518363ffffffff1660e01b81526004016105a49190611062565b6000604051808303818588803b1580156105bd57600080fd5b505af11580156105d1573d6000803e3d6000fd5b5050505050505b60018160040160006101000a81548160ff021916908315150217905550505050565b8073ffffffffffffffffffffffffffffffffffffffff16ff5b60045481565b600080600160009054906101000a900473ffffffffffffffffffffffffffffffffffffffff1673ffffffffffffffffffffffffffffffffffffffff166370a08231336040518263ffffffff1660e01b8152600401610677919061108c565b60206040518083038186803b15801561068f57600080fd5b505afa1580156106a3573d6000803e3d6000fd5b505050506040513d601f19601f820116820180604052508101906106c79190611121565b11610707576040517f08c379a00000000000000000000000000000000000000000000000000000000081526004016106fe906111ab565b60405180910390fd5b600260009054906101000a900473ffffffffffffffffffffffffffffffffffffffff1673ffffffffffffffffffffffffffffffffffffffff166396e494e8836040518263ffffffff1660e01b81526004016107629190611062565b60206040518083038186803b15801561077a57600080fd5b505afa15801561078e573d6000803e3d6000fd5b505050506040513d601f19601f820116820180604052508101906107b29190611387565b6107f1576040517f08c379a00000000000000000000000000000000000000000000000000000000081526004016107e890611400565b60405180910390fd5b6000600360006004548152602001908152602001600020905082816000018190555061012c42610821919061144f565b81600101819055507f9a863892f20a6b9c6cec64d611b5864be6373191ce2cacc3b05a299bce3bf80e60045460405161085a9190611062565b60405180910390a160046000815480929190610875906114a5565b9190505550600160045461088991906114ee565b915050919050565b610899610da8565b6108a36000610e26565b565b6108ad610da8565b6108b56108fd565b73ffffffffffffffffffffffffffffffffffffffff166108fc479081150290604051600060405180830381858888f193505050501580156108fa573d6000803e3d6000fd5b50565b60008060009054906101000a900473ffffffffffffffffffffffffffffffffffffffff16905090565b6000600160009054906101000a900473ffffffffffffffffffffffffffffffffffffffff1673ffffffffffffffffffffffffffffffffffffffff166370a08231336040518263ffffffff1660e01b8152600401610983919061108c565b60206040518083038186803b15801561099b57600080fd5b505afa1580156109af573d6000803e3d6000fd5b505050506040513d601f19601f820116820180604052508101906109d39190611121565b11610a13576040517f08c379a0000000000000000000000000000000000000000000000000000000008152600401610a0a906111ab565b60405180910390fd5b8160036000828152602001908152602001600020600101544210610a6c576040517f08c379a0000000000000000000000000000000000000000000000000000000008152600401610a639061156e565b60405180910390fd5b6000600360008581526020019081526020016000209050600080600160009054906101000a900473ffffffffffffffffffffffffffffffffffffffff1673ffffffffffffffffffffffffffffffffffffffff166370a08231336040518263ffffffff1660e01b8152600401610ae1919061108c565b60206040518083038186803b158015610af957600080fd5b505afa158015610b0d573d6000803e3d6000fd5b505050506040513d601f19601f82011682018060405250810190610b319190611121565b905060005b81811015610c6f576000600160009054906101000a900473ffffffffffffffffffffffffffffffffffffffff1673ffffffffffffffffffffffffffffffffffffffff16632f745c5933846040518363ffffffff1660e01b8152600401610b9d92919061158e565b60206040518083038186803b158015610bb557600080fd5b505afa158015610bc9573d6000803e3d6000fd5b505050506040513d601f19601f82011682018060405250810190610bed9190611121565b90506000151585600501600083815260200190815260200160002060009054906101000a900460ff1615151415610c5b578380610c29906114a5565b945050600185600501600083815260200190815260200160002060006101000a81548160ff0219169083151502179055505b508080610c67906114a5565b915050610b36565b5060008211610cb3576040517f08c379a0000000000000000000000000000000000000000000000000000000008152600401610caa90611629565b60405180910390fd5b60006001811115610cc757610cc6611649565b5b856001811115610cda57610cd9611649565b5b1415610d005781836002016000828254610cf4919061144f565b92505081905550610d1c565b81836003016000828254610d14919061144f565b925050819055505b505050505050565b610d2c610da8565b600073ffffffffffffffffffffffffffffffffffffffff168173ffffffffffffffffffffffffffffffffffffffff161415610d9c576040517f08c379a0000000000000000000000000000000000000000000000000000000008152600401610d93906116ea565b60405180910390fd5b610da581610e26565b50565b610db0610eea565b73ffffffffffffffffffffffffffffffffffffffff16610dce6108fd565b73ffffffffffffffffffffffffffffffffffffffff1614610e24576040517f08c379a0000000000000000000000000000000000000000000000000000000008152600401610e1b90611756565b60405180910390fd5b565b60008060009054906101000a900473ffffffffffffffffffffffffffffffffffffffff169050816000806101000a81548173ffffffffffffffffffffffffffffffffffffffff021916908373ffffffffffffffffffffffffffffffffffffffff1602179055508173ffffffffffffffffffffffffffffffffffffffff168173ffffffffffffffffffffffffffffffffffffffff167f8be0079c531659141344cd1fd0a4f28419497f9722a3daafe3b4186f6b6457e060405160405180910390a35050565b600033905090565b600080fd5b6000819050919050565b610f0a81610ef7565b8114610f1557600080fd5b50565b600081359050610f2781610f01565b92915050565b600060208284031215610f4357610f42610ef2565b5b6000610f5184828501610f18565b91505092915050565b610f6381610ef7565b82525050565b60008115159050919050565b610f7e81610f69565b82525050565b600060a082019050610f996000830188610f5a565b610fa66020830187610f5a565b610fb36040830186610f5a565b610fc06060830185610f5a565b610fcd6080830184610f75565b9695505050505050565b600073ffffffffffffffffffffffffffffffffffffffff82169050919050565b600061100282610fd7565b9050919050565b61101281610ff7565b811461101d57600080fd5b50565b60008135905061102f81611009565b92915050565b60006020828403121561104b5761104a610ef2565b5b600061105984828501611020565b91505092915050565b60006020820190506110776000830184610f5a565b92915050565b61108681610ff7565b82525050565b60006020820190506110a1600083018461107d565b92915050565b600281106110b457600080fd5b50565b6000813590506110c6816110a7565b92915050565b600080604083850312156110e3576110e2610ef2565b5b60006110f185828601610f18565b9250506020611102858286016110b7565b9150509250929050565b60008151905061111b81610f01565b92915050565b60006020828403121561113757611136610ef2565b5b60006111458482850161110c565b91505092915050565b600082825260208201905092915050565b7f596f75277265206e6f74206d656d626572206f66207468652044414f20210000600082015250565b6000611195601e8361114e565b91506111a08261115f565b602082019050919050565b600060208201905081810360008301526111c481611188565b9050919050565b7f5468652070726f706f736974696f6e206973207374696c6c206163746976652060008201527f2100000000000000000000000000000000000000000000000000000000000000602082015250565b600061122760218361114e565b9150611232826111cb565b604082019050919050565b600060208201905081810360008301526112568161121a565b9050919050565b7f5468652070726f706f736974696f6e2068617320616c7265616479206265656e60008201527f2065786563757465642021000000000000000000000000000000000000000000602082015250565b60006112b9602b8361114e565b91506112c48261125d565b604082019050919050565b600060208201905081810360008301526112e8816112ac565b9050919050565b7f6e6f7420656e6f75676820657468657220210000000000000000000000000000600082015250565b600061132560128361114e565b9150611330826112ef565b602082019050919050565b6000602082019050818103600083015261135481611318565b9050919050565b61136481610f69565b811461136f57600080fd5b50565b6000815190506113818161135b565b92915050565b60006020828403121561139d5761139c610ef2565b5b60006113ab84828501611372565b91505092915050565b7f4e4654206e6f7420617661696c61626c65000000000000000000000000000000600082015250565b60006113ea60118361114e565b91506113f5826113b4565b602082019050919050565b60006020820190508181036000830152611419816113dd565b9050919050565b7f4e487b7100000000000000000000000000000000000000000000000000000000600052601160045260246000fd5b600061145a82610ef7565b915061146583610ef7565b9250827fffffffffffffffffffffffffffffffffffffffffffffffffffffffffffffffff0382111561149a57611499611420565b5b828201905092915050565b60006114b082610ef7565b91507fffffffffffffffffffffffffffffffffffffffffffffffffffffffffffffffff8214156114e3576114e2611420565b5b600182019050919050565b60006114f982610ef7565b915061150483610ef7565b92508282101561151757611516611420565b5b828203905092915050565b7f566f7465732068617320656e6465642021000000000000000000000000000000600082015250565b600061155860118361114e565b915061156382611522565b602082019050919050565b600060208201905081810360008301526115878161154b565b9050919050565b60006040820190506115a3600083018561107d565b6115b06020830184610f5a565b9392505050565b7f616c6c20796f7572206e66747320616c726561647920766f74656420666f722060008201527f746869732070726f706f736974696f6e00000000000000000000000000000000602082015250565b600061161360308361114e565b915061161e826115b7565b604082019050919050565b6000602082019050818103600083015261164281611606565b9050919050565b7f4e487b7100000000000000000000000000000000000000000000000000000000600052602160045260246000fd5b7f4f776e61626c653a206e6577206f776e657220697320746865207a65726f206160008201527f6464726573730000000000000000000000000000000000000000000000000000602082015250565b60006116d460268361114e565b91506116df82611678565b604082019050919050565b60006020820190508181036000830152611703816116c7565b9050919050565b7f4f776e61626c653a2063616c6c6572206973206e6f7420746865206f776e6572600082015250565b600061174060208361114e565b915061174b8261170a565b602082019050919050565b6000602082019050818103600083015261176f81611733565b905091905056fea26469706673582212200dd37c9f2e0a735be6c92aa37d92122ffca971dd3e68f76406f6b10cfa7fcbde64736f6c63430008090033",
  "linkReferences": {},
  "deployedLinkReferences": {}
}