{
  "_format": "hh-sol-artifact-1",
  "contractName": "FakeNFTMarketplace",
  "sourceName": "contracts/FakeNFTMarketplace.sol",
  "abi": [
    {
      "inputs": [
        {
          "internalType": "uint256",
          "name": "token_id",
          "type": "uint256"
        }
      ],
      "name": "available",
      "outputs": [
        {
          "internalType": "bool",
          "name": "",
          "type": "bool"
        }
      ],
      "stateMutability": "view",
      "type": "function"
    },
    {
      "inputs": [],
      "name": "getPrice",
      "outputs": [
        {
          "internalType": "uint256",
          "name": "",
          "type": "uint256"
        }
      ],
      "stateMutability": "view",
      "type": "function"
    },
    {
      "inputs": [
        {
          "internalType": "uint256",
          "name": "token_id",
          "type": "uint256"
        }
      ],
      "name": "purchase",
      "outputs": [],
      "stateMutability": "payable",
      "type": "function"
    },
    {
      "inputs": [
        {
          "internalType": "address",
          "name": "adr",
          "type": "address"
        }
      ],
      "name": "selfDestruct",
      "outputs": [],
      "stateMutability": "nonpayable",
      "type": "function"
    },
    {
      "inputs": [
        {
          "internalType": "uint256",
          "name": "",
          "type": "uint256"
        }
      ],
      "name": "tokens",
      "outputs": [
        {
          "internalType": "address",
          "name": "",
          "type": "address"
        }
      ],
      "stateMutability": "view",
      "type": "function"
    }
  ],
  "bytecode": "0x608060405266038d7ea4c6800060015534801561001b57600080fd5b506104d38061002b6000396000f3fe60806040526004361061004a5760003560e01c80633f5a0bdd1461004f5780634f64b2be1461007857806396e494e8146100b557806398d5fdca146100f2578063efef39a11461011d575b600080fd5b34801561005b57600080fd5b5061007660048036038101906100719190610306565b610139565b005b34801561008457600080fd5b5061009f600480360381019061009a9190610369565b610152565b6040516100ac91906103a5565b60405180910390f35b3480156100c157600080fd5b506100dc60048036038101906100d79190610369565b610185565b6040516100e991906103db565b60405180910390f35b3480156100fe57600080fd5b50610107610200565b6040516101149190610405565b60405180910390f35b61013760048036038101906101329190610369565b61020a565b005b8073ffffffffffffffffffffffffffffffffffffffff16ff5b60006020528060005260406000206000915054906101000a900473ffffffffffffffffffffffffffffffffffffffff1681565b60008073ffffffffffffffffffffffffffffffffffffffff1660008084815260200190815260200160002060009054906101000a900473ffffffffffffffffffffffffffffffffffffffff1673ffffffffffffffffffffffffffffffffffffffff1614156101f657600090506101fb565b600190505b919050565b6000600154905090565b60015434101561024f576040517f08c379a00000000000000000000000000000000000000000000000000000000081526004016102469061047d565b60405180910390fd5b3360008083815260200190815260200160002060006101000a81548173ffffffffffffffffffffffffffffffffffffffff021916908373ffffffffffffffffffffffffffffffffffffffff16021790555050565b600080fd5b600073ffffffffffffffffffffffffffffffffffffffff82169050919050565b60006102d3826102a8565b9050919050565b6102e3816102c8565b81146102ee57600080fd5b50565b600081359050610300816102da565b92915050565b60006020828403121561031c5761031b6102a3565b5b600061032a848285016102f1565b91505092915050565b6000819050919050565b61034681610333565b811461035157600080fd5b50565b6000813590506103638161033d565b92915050565b60006020828403121561037f5761037e6102a3565b5b600061038d84828501610354565b91505092915050565b61039f816102c8565b82525050565b60006020820190506103ba6000830184610396565b92915050565b60008115159050919050565b6103d5816103c0565b82525050565b60006020820190506103f060008301846103cc565b92915050565b6103ff81610333565b82525050565b600060208201905061041a60008301846103f6565b92915050565b600082825260208201905092915050565b7f6e6f7420656e6f7567682065746865722070726f766964656400000000000000600082015250565b6000610467601983610420565b915061047282610431565b602082019050919050565b600060208201905081810360008301526104968161045a565b905091905056fea2646970667358221220b1318abd679d20da727c1d35282aeb6b5f866b7ae2ad74f370838bc1ba17732164736f6c63430008090033",
  "linkReferences": {},
  "deployedLinkReferences": {}
}